:020000040000FA
:10000000C0050020510100007FA900001D2500004F
:100010007DA900002B0A0000B1C60000000000000E
:100020000000000000000000000000006FAE0000B3
:10003000FD0C00000000000011AB0000BDAE000090
:10004000410B00002FA90000290A0000B3C60000E0
:10005000D1AC00003F2300001D2300002DA90000AB
:100060001F2300002D2300002F2300003123000058
:10007000332300003523000037230000392300001C
:100080003B2300003D230000212300002323000028
:100090002523000027230000292300002B23000034
:1000A000430B00000D0900000000000075A90000CE
:1000B0007BA9000079A9000077A9000000000000DA
:1000C000000000000000000000000000DB23000032
:1000D0001D240000000000000000000000000000DF
:1000E00000000000250A0000270A00001F2500006C
:1000F000212500006BAE00006DAE0000E5C10000E0
:1001000081C20000000000000000000069AE000095
:1001100000000000AFC600000000000071AA00004F
:1001200077AA000079AA00007BAA00007DAA00003F
:100130007FAA000081AA000083AA000085AA00000F
:1001400087AA000073AA000075AA0000450B0000F2
:100150000648804706480047FEE7FEE7FEE7FEE761
:10016000FEE7FEE7FEE7FEE7FEE7FEE7C1AE0000C2
:1001700075010000DFF80CD000F0B6FB0048004726
:1001800015CE0000C0050020F0B480EA0102D40FB3
:100190004200B2EB410F02D20246084611464A0025
:1001A00042D0C30DDDB2C1F3C752AD1A202D35DAEE
:1001B000C1F3160141F4000204B15242C5F1200618
:1001C00002FA06F12A411044B3EBD05F23D0C4B148
:1001D000012DA0EBC35009DCF0BC4FF0004202EA55
:1001E000C352DBB200F5000000F0A4BA400000F1F9
:1001F000807000EBC350A0F1807040EAD1704900DC
:1002000009E0490841EAC071A0EBC35000F50000C5
:10021000400800EBC350F0BC00F083BA61420122F9
:1002200002EB4101001BF6E7F0BC704781F0004192
:10023000AAE780F00040A7E780EA010210B502F0CB
:100240000043400022D04A001FD0010E01EB126192
:10025000C0F35600C2F3560240F4000042F400021C
:10026000A0FB022000047F39140400D0401C50EA97
:10027000124001D44000491EC2B20C0604EBD0105B
:10028000401C4008802A02D003E0002010BD20F06E
:100290000100002900DA0020184310BD30B480EAC4
:1002A000010202F0004530F0004221F0004013D07E
:1002B00090B1C30DD40DC2F31601C0F31600E41AB9
:1002C00041F4000140F400027D34914201D3641CEA
:1002D00000E04900002C02DA30BC002070474FF4E7
:1002E00000000023914201D3891A034340084FEADA
:1002F0004101F7D151B1914202D14FF0004105E0E7
:1003000002D24FF0010101E06FF0010103EBC45094
:10031000284430BC00F005BA420005D0C0F3C752F3
:100320005242914201DC0020704700EBC1507047FF
:100330002DE9FE4F804681EA0300C00F0C46009075
:1003400021F0004123F00045B8EB0200A94105D29D
:100350004046214690461C460B46024623F000408C
:10036000104347D0270DC7F30A00C3F30A51029088
:10037000401A019040286BDAC3F3130040F4801B4D
:100380000098924620B10023D2EB030A63EB0B0BDB
:1003900001985946C0F14002504600F091F90646D6
:1003A0000D4650465946019A00F0A9F910EB080095
:1003B0006141002487EA115284EAE7731A4340D06E
:1003C000009A62B3019A012A4FEA075215DC001B1A
:1003D00061EB02014FF0004202EA0752CDE9004210
:1003E000001C41F5801132462B4600F0DEF903B0C7
:1003F000BDE8F08F40462146F9E7001B61EB0201A2
:10040000001C41F5801300185B412018A2F500176D
:1004100047EB030140EAD570B6196D4111E06D0854
:100420004FEA360645EAC0754FEA0752001B61EBFA
:100430000201001C41F5801149084FEA3000001903
:10044000514132462B4603B0BDE8F04F00F0A0B951
:100450000098012240000023D0EB020263EBE0731E
:10046000009821464FEAE074B8EB000061EB04010C
:10047000E9E783F000435BE781F0004158E72DE9AD
:10048000FE4F81EA030404F0004421F0004100948F
:100490004FF0000B23F0004350EA01045ED052EA13
:1004A00003045BD0C3F30A54C1F30A552C44A4F2ED
:1004B000F3340194A0FB0254C1F3130141F4801101
:1004C000C3F3130343F4801301FB024400FB034E08
:1004D000840A970A44EA815447EA8357A4FB0768D1
:1004E00002958D0A05FB07854FEA932C04FB0C54FB
:1004F0002705029D4FEA065847EA1637B5EB08056F
:100500006EEB070C870E920E47EA811742EA8312C0
:10051000A7FB0201B6EB0B0164EB00042B0D43EAD1
:100520000C335E1844EB1C50DA465146E7FB0201DF
:10053000C5F313044FEA0B3343EA14534FEA043272
:10054000019C43EA0603A4F10C040294009CCDE94B
:1005500000B400F02AF903B0BDE8F08F0020014696
:10056000F9E7C10F80EAE0700844CA07962300212A
:1005700000F0E0B896230022114600F0DBB80EB57B
:1005800040F2334102910021CDE900110A460B46A9
:1005900000F00BF903B000BD00F0004220F0004075
:1005A000C10DC0F3160040F400007F2901DA0020DD
:1005B0007047962903DCC1F19601C84001E09639E5
:1005C0008840002AF4D04042704720F00040C10D1E
:1005D000C0F3160040F400007F2901DA00207047C4
:1005E000962903DCC1F19601C840704796398840CE
:1005F000704770B5C1F30A5201F000450024C1F301
:10060000130140F2FF3341F480119A4201DA0020D5
:1006100070BD40F233439A42A2F2334203DC5242AD
:1006200000F05DF800E090402C43F1D0404270BDF6
:10063000C1F30A5210B5C1F3130140F2FF3341F484
:1006400080119A4201DA002010BD40F233439A42F1
:10065000A2F2334203DC524200F041F810BD904058
:1006600010BD00F0004230F000400AD0C10D01F58D
:100670006071C0F3160042EA0151C20840071143FD
:10068000704700200146704701F0004330B421F06C
:10069000004150EA010206D00A0DA2F56072C1F3D2
:1006A0001301002A02DC30BC00207047440F44EAEA
:1006B000C104C100E01830BC00EBC25000F031B8FA
:1006C000202A04DB203A00FA02F100207047914012
:1006D000C2F1200320FA03F3194390407047202A07
:1006E00004DB203A21FA02F00021704721FA02F3DC
:1006F000D040C2F120029140084319467047202A99
:1007000006DBCB17203A41FA02F043EAE07306E039
:1007100041FA02F3D040C2F1200291400843194649
:1007200070470029A8BF7047401C490008BF20F04F
:100730000100704710B4B0FA80FC00FA0CF050EAE7
:10074000010404BF10BC704749B1CCF1200421FA68
:1007500004F411FA0CF118BF012121430843A3EB63
:100760000C01CB1D4FEA00614FEA102042BF002070
:1007700010BC704700EBC35010440029A4BF10BC4C
:100780007047401C490008BF20F0010010BC7047B2
:1007900010B5002B08DA401C41F1000192185B41B2
:1007A0001A4301D120F0010010BD2DE9F04D924611
:1007B0009B4611B1B1FA81F202E0B0FA80F2203228
:1007C0009046FFF77DFF04460F4640EA0A0041EAE3
:1007D0000B0153465A46084313D0114653EA010011
:1007E00019D0C8F140025046FFF779FF05460E4682
:1007F000504659464246FFF763FF084305D00120A3
:1008000004E020463946BDE8F08D0020054346EA65
:10081000E0762C4337430A986305E40AA0EB08000E
:100820000022FD0A44EA47540A3002D5002001465E
:10083000E9E7010510196941DDE908450019694139
:10084000BDE8F04DA4E72DE9F04D00231A461B1A30
:100850008A4103DB00200146BDE8F08DC1F30A5256
:10086000C1F3130141F480154FF0000BD10702D101
:1008700000186D41521E0027044640F2FF11384611
:1008800001EB620A3E468046024600204FF480118A
:10089000FFF725FFC2197141BB1846EB0100B4EB0D
:1008A000030C75EB000C04D3E41A65EB0005174646
:1008B0000E46241908F101006D4180463428E3DD1D
:1008C000F91946EB0600091BA84103D24FF0FF328D
:1008D000134601E0002213461BEB070046EB0A51CA
:1008E000BDE8F04DFFF754BF064C074D06E0E06849
:1008F00040F0010394E8070098471034AC42F6D367
:10090000FFF73CFC3C0001005C0001007047000068
:10091000034A1369014083430B431361704700008E
:1009200000200240034A5369014083430B43536153
:100930007047000000200240034A9369014083434E
:100940000B439361704700000020024001F00ABE93
:100950002DE9F04102460E4600200024971908E0D8
:100960000502381B401E80B200F007F82844641CC2
:10097000E4B2B442F4D3BDE8F08110B5044601F00E
:10098000A5FE200AA02101EB4000C0B201F06CFEE0
:1009900001F0DCFEE0B201F067FE01F0D7FE01F0ED
:1009A00095FEA12001F060FE01F0D0FE002001F0D4
:1009B0001FFE044601F0AAFE204610BD2DE9F041BD
:1009C00006460D461746002409E0E00025FA00F02F
:1009D000C1B2301980B200F006F8641CE4B2BC4227
:1009E000F3D3BDE8F08170B504460D4601F06EFE0C
:1009F000200AA02101EB4000C0B201F035FE01F059
:100A0000A5FEE0B201F030FE01F0A0FE284601F0A4
:100A10002BFE01F09BFE01F079FEBDE870400A203C
:100A20000CF032B9704770477047FEE7054A01295C
:100A300003D0D16A8143D1627047D16A0143D16248
:100A40007047000000800840054A012903D0116B5F
:100A5000814311637047116B0143116370470000BC
:100A60000080084010B501218803FFF7DFFF012156
:100A7000BDE810404020FFF7E7BF0000014600201E
:100A8000024A92680A4200D0012070470080084064
:100A9000F0B5284DD5F8A4100027274A274C002987
:100AA00006D0D5F8FC1339B1296A19B1026013E0F8
:100AB000076011E002600FE0A169C1F3C55101B9FF
:100AC0004021A369C3F341560123B3402D6AFDB110
:100AD000B2FBF3F34B430360616801F003010129AA
:100AE0001BD002291CD003291CD047604168226A10
:100AF000D14081602268C2F3015221FA02F2C26041
:100B0000A26AC2F30242072A0ED0D1400161F0BDB1
:100B1000B2FBF3F34B430360DEE701684160E5E7B6
:100B20004260E3E74260E1E70622B1FBF2F10161D6
:100B3000F0BD00000000104300127A000080084061
:100B400070477047704700002DE9F0475D4EB06870
:100B5000F060FFF786FD5C4A5C4BFFF790FC0446B3
:100B60000D460AF05FF9FFF70AFD594A594BFFF7A6
:100B700086FC22462B46FFF7DBFBFFF785FDB060C6
:100B8000FFF723FD0446706131687160316942F2FC
:100B90000F75814201D2356015E0081BB061FFF787
:100BA000EEFC4D4A4D4BFFF76AFC4D4A4D4BFFF7AB
:100BB00066FC4D4A4D4BFFF75CFCFFF765FDF061AD
:100BC000FFF7EAFC30603068A84200DD356030682D
:100BD0004FF47A7790FBF7F03A4D3030203528709B
:100BE00030684FF0640890FBF7F107FB110090FBB1
:100BF000F8F03030687030684FF00A0990FBF7F178
:100C000007FB110090FBF8F108FB110090FBF9F0D5
:100C10003030A870306890FBF7F107FB110090FBB3
:100C2000F8F108FB110090FBF9F109FB11003030DD
:100C3000E8702E2028713068FFF793FCF169FFF708
:100C4000F8FA2B49FFF7F8FAFFF7A6FC3030687185
:100C50006720A8710023EB71264A1A48B4FBF2F111
:100C6000283001F13005057002FB1142224CB2FB25
:100C7000F4F101F13005457004FB112242F21074C9
:100C8000B2FBF4F101F13005857004FB1122B2FBD7
:100C9000F7F101F13004C47007FB1122B2FBF8F147
:100CA00001F13004047108FB1122B2FBF9F101F1EA
:100CB0003004447109FB112130318171C371BDE8E9
:100CC000F0870000BC0000205C8FC2F5285CEF3F7D
:100CD0007B14AE47E17A943FC3D32B6519E2F33F0F
:100CE000FCA9F1D24D62503F4DF38E5374241B404A
:100CF0000000204140420F00A08601007047000024
:100D00000C488078072813D2DFE800F00406080AB0
:100D10000C0E100000F01EBD00F092BE00F0FEBEF2
:100D200000F066BF00F008B800F0B2B900F08CBC6B
:100D300070470000FC0000202DE9FC5F4FF6FF70BB
:100D400008F06AFD1024A9A0CDE900402346C8227E
:100D500032213C2009F0FAFCA94E0125CDE90045DD
:100D6000B288102346211E2009F01AFDCDE9004566
:100D7000B27910234621322009F012FDCDE9004559
:100D80004621F2791023084609F00AFDCDE9004515
:100D90003278102346215A2009F002FDCDE90045A2
:100DA0007278102346216E2009F0FAFCCDE9004547
:100DB000B27810234621822009F0F2FC91A0CDE9FF
:100DC00000401023C8225A213C2009F0BFFC924E5B
:100DD000CDE900451023B2886E211E2009F0E0FC09
:100DE000CDE90045B27910236E21322009F0D8FCFC
:100DF000CDE90045F27910236E21462009F0D0FCA0
:100E0000CDE90045327810236E215A2009F0C8FC44
:100E1000CDE900456E2172781023084609F0C0FC28
:100E2000CDE90045B27810236E21822009F0B8FC8C
:100E30007AA0CDE9004010234B2282213C2009F00A
:100E400085FC962382227D21372008F05DFE75A067
:100E5000CDE9004010234B22AA213C2009F076FC6A
:100E6000BE238222A521372008F04EFE6FA0CDE9D7
:100E7000004010234B22D2213C2009F067FCE623DE
:100E80008222CD21372008F03FFE6AA0CDE9004044
:100E900010234B22FA213C2009F058FC4FF48775AF
:100EA0002B468222F521372008F02EFE63A0CDE9E3
:100EB00000404FF4917610234B2231463C2009F03C
:100EC00045FC4FF49B7740F21D183B468222414679
:100ED000372008F019FE5BA0CDE900404FF4A5795A
:100EE00010234B2249463C2009F030FC4FF4AF7AE6
:100EF00040F2451B534682225946372008F004FE33
:100F000052A0CDE9004010234B228221962009F007
:100F10001DFC9623DC227D21912008F0F5FD4DA0DB
:100F2000CDE9004010234B22AA21962009F00EFCA7
:100F3000BE23DC22A521912008F0E6FD47A0CDE9E3
:100F4000004010234B22D221962009F0FFFBE6231C
:100F5000DC22CD21912008F0D7FD42A0CDE9004050
:100F600010234B22FA21962009F0F0FB2B46DC22BD
:100F7000F521912008F0C8FD3CA0CDE900401023E8
:100F80004B223146962009F0E1FB3B46DC224146EC
:100F9000912008F0B9FD37A0CDE9004010234B2285
:100FA0004946962009F0D2FB5346DC22594691204F
:100FB00008F0AAFD31A0334DCDE900406888102328
:100FC000183881B24B22182009F0C0FB2EA0CDE9C1
:100FD000004068881023183881B22888C822303829
:100FE00080B209F0B3FBBDE8FC9F000054686520A7
:100FF00043757272656E742054696D65000000005F
:10100000A60300205468652053657474696E6720D8
:1010100054696D6500000000B003002079656172BD
:101020002B310000796561722D3100006D6F6E7497
:10103000682B31006D6F6E74682D31006461792BFF
:10104000310000006461792D31000000686F757215
:101050002B310000686F75722D3100006D696E2BA9
:10106000310000006D696E2D310000007365632B47
:10107000310000007365632D310000004261636B35
:101080000000000098030020536176650000000016
:101090002DE9FC474FF6FF70002100904FF4F073EC
:1010A0004FF4A072084608F059FDFE4B18684FF443
:1010B0007A72B0FBF2F0FC4F303038701868B0FB39
:1010C000F2F102FB11016420B1FBF0F130317970D3
:1010D0001968B1FBF2F402FB1411B1FBF0F400FB50
:1010E00014140A21B4FBF1F43034BC701B68B3FB58
:1010F000F2F402FB1432B2FBF0F300FB1322B2FB5A
:10110000F1F301FB13223032FA70E84E3278E84DE9
:1011100092B1E84A1368B3FBF0F202F130042C708C
:1011200000FB1232B2FBF1F000F130036B7001FBF7
:1011300010203030A87005E0307818B930202870C1
:101140006870A870DC480078DFF87083303088F869
:1011500000001024DAA0CDE900402346C822142163
:10116000782009F0F3FADBA0CDE900401023C82273
:1011700032213C2009F0EAFAD8A0CDE90040102342
:10118000C82246213C2009F0E1FAD6A0CDE9004072
:101190001023C8225A213C2009F0D8FAD64810233F
:1011A000CDE90040C8225A21E62009F0CFFAD3A0A9
:1011B000CDE900401023C8226E213C2009F0C6FA78
:1011C000D3481023CDE90040C8226E21E62009F063
:1011D000BDFAD0A0CDE900401023C8226E21FA202C
:1011E00009F0B4FACCA0CDE900401023C822822136
:1011F0003C2009F0ABFACD481023CDE90040C822CD
:101200008221E62009F0A2FADFF8249399F8010080
:1012100030B101280ED0022816D0032827D11DE0B6
:10122000C4A0CDE900401023C8223221AA2009F031
:101230008DFA1CE0C1A0CDE900401023C822322164
:10124000AA2009F083FA12E0BEA0CDE900401023E5
:10125000C8223221AA2009F079FA08E0BCA0CDE921
:1012600000401023C8223221AA2009F06FFA99F811
:10127000020030B101280ED0022816D0032827D151
:101280001DE0B6A0CDE900401023C8224621AA20C7
:1012900009F05CFA1CE0B3A0CDE900401023C8229D
:1012A0004621AA2009F052FA12E0B0A0CDE9004090
:1012B0001023C8224621AA2009F048FA08E0ADA070
:1012C000CDE900401023C8224621AA2009F03EFAA9
:1012D000AAA0CDE900401023C82296213C2009F0A5
:1012E00035FAAB481023CDE90040C8229621E6200C
:1012F00009F02CFAA7A0CDE900401023C822AA21AA
:101300003C2009F023FACDE900471023C822AA2186
:10131000E62009F01BFAA4A0CDE900401023C82262
:10132000BE213C2009F012FA1023C822BE21E6207B
:10133000CDE9004509F00AFA9FA0CDE9004010234D
:101340002022BE214FF4827009F000FA307818B1E3
:10135000307801280AD012E098A0CDE9004010238F
:10136000C822E6213C2009F0F1F908E096A0CDE979
:1013700000401023C822E6213C2009F0E7F9FA23B7
:10138000C822E121372008F0BFFB924802784FF4D1
:1013900087711AB10078012809D010E08EA0CDE93C
:1013A00000401023C8223C2009F0D0F907E08CA0AF
:1013B000CDE900401023C8223C2009F0C7F94FF4C2
:1013C0009173C82240F20911372008F09DFBCDE946
:1013D00000481023C8224FF4AF714FF4967009F003
:1013E000B5F9814E0125CDE900454FF49B77B288D0
:1013F00004233946282009F0D3F97CA0CDE9004028
:10140000102308223946502009F0A0F9CDE9004503
:10141000B279022339465A2009F0C2F973A0CDE906
:1014200000401023082239466E2009F08FF9CDE9DB
:101430000045F27902233946782009F0B1F9CDE967
:101440000045327802233946962009F0A9F967A0B1
:10145000CDE90040102308223946AA2009F076F988
:10146000CDE90045727802233946B42009F098F995
:101470005EA0CDE90040102308223946C82009F0BB
:1014800065F9CDE90045B27802233946D22009F04A
:1014900087F957A0584DCDE900406888183881B2C7
:1014A0001023ABE00C0000202800002004000020E6
:1014B0003E000020440000205D000020420000208B
:1014C00044657369676E65642062792043415543C2
:1014D0000000000050656F706C653A0053656173E1
:1014E0006F6E3A0057617465722074656D70657235
:1014F00061747572650000002E000020496465610A
:101500006C2074656D7065726174757265000000A1
:10151000070000205E430000526F6F6D2074656D00
:1015200070657261747572650000000036000020FD
:10153000100000204368696C640000005465656E0B
:10154000000000004D6964646C65206167650000FF
:10155000546865206167656400000000537072691B
:101560006E67000053756D6D65720000417574758E
:101570006D6E000057696E746572000054686520D6
:1015800063757272656E7420776174657200000015
:10159000DC000020546865207265717569726564AD
:1015A000207761746572000052656D61696E696EC5
:1015B000672054696D6500006D696E00537973741E
:1015C000656D206F6E00000053797374656D206F38
:1015D000666600005C00002046616E206F6E0000B1
:1015E00046616E206F666600A60300202D00000095
:1015F00053657474696E670098030020C822182030
:1016000009F0A4F80CA0CDE9004068881023183830
:1016100081B22888C822403880B209F097F808A023
:10162000CDE9004068881023183881B23C22782028
:1016300009F08CF8BDE8FC87526566726573680036
:1016400052656C6F616400007CB54FF6FF7008F066
:10165000E3F8102423A0CDE900402346C82232211C
:101660003C2009F073F823A0CDE900401023C822E4
:1016700046213C2009F06AF823481023CDE90040B8
:10168000C8224621E62009F061F820481023CDE960
:101690000040C8225A21E62009F058F81C48C82307
:1016A000DC2240689621CDE90040282009F04EF860
:1016B00018A01A4DCDE9004068881023183881B26F
:1016C000C822182009F042F815A0CDE9004068882A
:1016D0001023183881B22888C822183880B209F03F
:1016E00035F87CBD576569676874206669786564FC
:1016F0000000000054686520436F727265637420B7
:101700004461746100000000E4000020DC0000205F
:10171000FC0000204261636B000000009803002081
:101720004669780010B54FF6FF7008F075F8084963
:101730001F20088009F0F2FB09F000FC09F00EFC04
:1017400009F01CFC09F02AFCBDE8104009F038BC87
:10175000880000207CB54FF6FF7008F05DF87C49EA
:101760001F20088010247BA0CDE900402346C8221A
:1017700032213C2008F0EAFF79A0CDE90040102397
:10178000C8225A213C2008F0E1FF7AA0CDE90040B0
:101790001023C82282213C2008F0D8FF79A0CDE98F
:1017A00000401023C822AA213C2008F0CFFF7AA0D5
:1017B0007B4DCDE9004068881023183881B2288815
:1017C000C822303880B208F0C1FF76A0CDE90040D1
:1017D00068881023183881B2C822182008F0B6FF94
:1017E0006E23DC225521372008F08EF99623DC2267
:1017F0007D21372008F088F9BE23DC22A52137207F
:1018000008F082F96AA0CDE90040C82210231146F1
:101810003C2008F09BFF6BA0CDE900401023C822BC
:10182000DC213C2008F092FF68A0CDE900401023A5
:10183000C822F0213C2008F089FF66A0CDE90040D5
:101840004FF482761023C82231463C2008F07EFFF8
:1018500065481023CDE90040C8223146E62008F053
:1018600075FF62A0CDE900401023C8223146FA205E
:1018700008F06CFF5E4E707830B101280ED002285F
:1018800016D0032827D11DE05AA0CDE9004010232F
:10189000C822DC21AA2008F059FF1CE057A0CDE99E
:1018A00000401023C822DC21AA2008F04FFF12E0DC
:1018B00054A0CDE900401023C822DC21AA2008F062
:1018C00045FF08E052A0CDE900401023C822DC21EA
:1018D000AA2008F03BFFB07830B101280ED00228D2
:1018E00016D0032827D11DE04CA0CDE900401023DD
:1018F000C822F021AA2008F029FF1CE049A0CDE968
:1019000000401023C822F021AA2008F01FFF12E097
:1019100046A0CDE900401023C822F021AA2008F0FB
:1019200015FF08E043A0CDE900401023C822F021B4
:10193000AA2008F00BFF41A0CDE900402888102321
:10194000183880B2C822002108F000FF7CBD0000DA
:10195000880000204D61696E206D656E753A00004B
:1019600050656F706C652063617465676F7269653F
:1019700073000000536561736F6E616C204F70746B
:10198000696F6E00496465616C2074656D70657285
:101990006174757265000000536176650000000097
:1019A00098030020466978205765696768740000CD
:1019B000546865204F7074696F6E2053656C656361
:1019C0007465640050656F706C653A0053656173AF
:1019D0006F6E3A00496465616C2074656D70657264
:1019E00061747572653A0000070000205E430000D4
:1019F000100000204368696C640000005465656E47
:101A0000000000004D6964646C652061676500003A
:101A10005468652061676564000000005370726956
:101A20006E67000053756D6D6572000041757475C9
:101A30006D6E000057696E74657200005254430069
:101A40001CB54FF6FF7007F0E7FE26491F200880FF
:101A5000102425A0CDE900402346C82232213C2095
:101A600008F074FE22A0CDE900401023C8225A21BC
:101A70003C2008F06BFE20A0CDE900401023C822D6
:101A800082213C2008F062FE1EA0CDE90040102318
:101A9000C822AA213C2008F059FE4623DC222D2131
:101AA000372008F031F86E23DC225521372008F06A
:101AB0002BF89623DC227D21372008F025F8BE2361
:101AC000DC22A521372008F01FF811A0CDE9004045
:101AD00011481023C8224088183881B2182008F015
:101AE00035FE1CBD880000204368696C640000005E
:101AF0005465656E000000004D6964646C6520618A
:101B00006765000054686520616765640000000037
:101B10004261636B00000000980300201CB54FF683
:101B2000FF7007F079FE26491F200880102425A0A9
:101B3000CDE900402346C82232213C2008F006FEB1
:101B400022A0CDE900401023C8225A213C2008F0F1
:101B5000FDFD20A0CDE900401023C82282213C20B9
:101B600008F0F4FD1DA0CDE900401023C822AA21F1
:101B70003C2008F0EBFD4623DC222D21372007F026
:101B8000C3FF6E23DC225521372007F0BDFF9623CB
:101B9000DC227D21372007F0B7FFBE23DC22A52100
:101BA000372007F0B1FF0FA0CDE900400F48102308
:101BB000C8224088183881B2182008F0C7FD1CBD23
:101BC00088000020537072696E67000053756D6D58
:101BD00065720000417574756D6E000057696E7412
:101BE000657200004261636B0000000098030020F2
:101BF0001CB54FF6FF7007F00FFE34491F20088018
:101C0000102433A0CDE900402346C82232213C20D5
:101C100008F09CFD33481023CDE90040C82246213E
:101C20003C2008F093FD30A0CDE900401023C822ED
:101C300046215A2008F08AFD2CA0CDE9004010234F
:101C4000C82282213C2008F081FD9623DC227D21E0
:101C5000372007F059FF26A0CDE900401023C82205
:101C6000AA213C2008F072FDBE23DC22A5213720EA
:101C700007F04AFF1FA0CDE900401023C822D2215F
:101C80003C2008F063FDE623DC22CD21372007F05D
:101C90003BFF19A0CDE900401023C822FA213C20C7
:101CA00008F054FD4FF48773DC22F521372007F04C
:101CB0002BFF12A0CDE9004012481023C822408813
:101CC000183881B2182008F041FD1CBD88000020A2
:101CD000496465616C2074656D70657261747572BC
:101CE00065000000070000205E4300002B3130003B
:101CF0002D3130002B3100002D3100004261636B2B
:101D000000000000980300202DE9FC47C64B18682E
:101D10004FF47A71B0FBF1F0C44F3030387018686E
:101D2000B0FBF1F201FB12026420B2FBF0F23032A0
:101D30007A701A68B2FBF1F401FB1422B2FBF0F4E2
:101D400000FB14240A22B4FBF2F43034BC701B688C
:101D5000B3FBF1F401FB1431B1FBF0F300FB131101
:101D6000B1FBF2F302FB13113031F970B0490B787B
:101D7000B04E002B12D0B0490B68B3FBF0F101F16B
:101D80003004347000FB1131B1FBF2F000F130038C
:101D9000737002FB10103030B07005E0087818B98D
:101DA000302030707070B070A4480078DFF89082F6
:101DB000303088F800004FF6FF754FF496796A23AB
:101DC0004A465A21E620009507F0C8FE9D48102497
:101DD000CDE900402346C8225A21E62008F0B6FC8F
:101DE00092234A468221E620009507F0B7FE9648E6
:101DF0001023CDE90040C8228221E62008F0A6FC8D
:101E0000A6234A469621E620009507F0A7FE8F48B4
:101E10001023CDE90040C8229621E62008F096FC68
:101E2000BA234A46AA21E620009507F097FECDE99D
:101E300000471023C822AA21E62008F087FCCE2301
:101E40004FF48272BE21E620009507F087FECDE9AF
:101E500000461023C822BE21E62008F077FC4FF48C
:101E6000AF764FF4B7734FF4A072314648460095F1
:101E700007F074FECDE900481023C82231464846D9
:101E800008F064FC4223F0223221AA20009507F0DA
:101E900065FE5623F0224621AA20009507F05EFE3B
:101EA0006B4E707830B101280ED0022816D003286E
:101EB00027D11DE067A0CDE900401023C8223221C0
:101EC000AA2008F043FC1CE064A0CDE900401023E8
:101ED000C8223221AA2008F039FC12E061A0CDE925
:101EE00000401023C8223221AA2008F02FFC08E06D
:101EF0005FA0CDE900401023C8223221AA2008F0BB
:101F000025FCB07830B101280ED0022816D0032865
:101F100027D11DE059A0CDE900401023C822462159
:101F2000AA2008F013FC1CE056A0CDE900401023C5
:101F3000C8224621AA2008F009FC12E053A0CDE9EE
:101F400000401023C8224621AA2008F0FFFB08E029
:101F500050A0CDE900401023C8224621AA2008F055
:101F6000F5FB4FF49B774FF4AD733A4639461E208C
:101F7000009507F0F3FD494E0125CDE90045B288F3
:101F800004233946282008F00BFC45A0CDE9004089
:101F9000102308223946502008F0D8FBCDE900452F
:101FA000B279022339465A2008F0FAFB3CA0CDE969
:101FB00000401023082239466E2008F0C7FBCDE907
:101FC0000045F27902233946782008F0E9FBCDE993
:101FD0000045327802233946962008F0E1FB30A014
:101FE000CDE90040102308223946AA2008F0AEFBB4
:101FF000CDE90045727802233946B42008F0D0FBC1
:1020000027A0CDE90040102308223946C82008F057
:102010009DFBCDE90045B27802233946D22008F075
:10202000BFFBBDE8FC8700000C000020280000205A
:10203000040000203E000020440000205D0000203D
:10204000420000202E00002036000020DC0000208E
:10205000100000204368696C640000005465656EE0
:10206000000000004D6964646C65206167650000D4
:1020700054686520616765640000000053707269F0
:102080006E67000053756D6D657200004175747563
:102090006D6E000057696E7465720000A603002023
:1020A0002D0000007CB54FF6FF754FF49676562351
:1020B00032464621E620009507F050FD0D481024D9
:1020C000CDE900402346C8224621E62008F03EFB29
:1020D0006A2332465A21E620009507F03FFD064864
:1020E0001023CDE90040C8225A21E62008F02EFB3B
:1020F0007CBD0000E4000020DC0000207CB54FF631
:10210000FF70009056234FF4A57246211E2007F061
:1021100025FD10250124194ECDE90054B2882B4627
:1021200046211E2008F03CFBCDE90054B279102373
:102130004621322008F034FBCDE900544621F279E3
:102140001023084608F02CFBCDE900543278102308
:1021500046215A2008F024FBCDE900547278102360
:1021600046216E2008F01CFBCDE90054B278102304
:102170004621822008F014FB7CBD0000A60300204D
:102180002DE9FC414FF6FF74FA23C822E1213720E4
:10219000009407F0E3FC4FF4917540F209162B46CA
:1021A000C82231463720009407F0D8FC2248017835
:1021B000102419B1007801280AD012E01FA0CDE93F
:1021C00000401023C822E6213C2008F0BFFA08E0B6
:1021D0001DA0CDE900401023C822E6213C2008F0D4
:1021E000B5FAFA23C822E121372007F08DFC1948FF
:1021F00001784FF4877719B1007801280AD012E0EE
:1022000015A0CDE900401023C82239463C2008F033
:102210009DFA08E012A0CDE900401023C8223946FB
:102220003C2008F093FA02B02B463146BDE8F0415D
:10223000C822372007F068BC04000020537973746B
:10224000656D206F6E00000053797374656D206FAB
:10225000666600005C00002046616E206F6E000024
:1022600046616E206F6666002DE9FC5F0746884672
:10227000002415460320A0EB42064BE0A8EB050026
:1022800081B207EB040A01901FFA8AF007F012FCF2
:10229000A8EB040081B207EB050900901FFA89F052
:1022A00007F008FC08EB040B1FFA8BF11FFA89F00A
:1022B00007F000FC08EB05091FFA89F11FFA8AF004
:1022C00007F0F8FB1FFA89F1A7EB04091FFA89F060
:1022D00007F0F0FBA7EB050A1FFA8BF11FFA8AF053
:1022E00007F0E8FB019881B21FFA89F007F0E2FBE2
:1022F000009881B21FFA8AF007F0DCFB641C002E04
:1023000003DA06EB8406B61D04E0601B06EB8006CC
:102310000A366D1EAC42B1DDBDE8FC9F70477047C8
:1023200070477047704770477047704770477047F5
:1023300070477047704770477047704770477047E5
:1023400081627047002A03D002680A430260704726
:1023500002688A4302607047002A03D042690A4338
:102360004261704742698A4342617047002A03D044
:1023700042680A434260704742688A43426070473D
:10238000002A03D002690A430261704702698A4346
:1023900002617047002A08D0012A0DD082688A4362
:1023A0008260C2688A43C260704782680A43826062
:1023B000C2688A43C2607047C2680A43C2608268CA
:1023C0008A438260704741627047002A01D04162AF
:1023D0007047816270470162704700F001B80000E9
:1023E00070B50C4D4FF480742146284600F06CF80F
:1023F00000280ED02146284600F040F8064908681B
:1024000028B100200860BDE870400AF0E7BD012057
:10241000F8E770BD00E0064000043642AFF30080EC
:1024200070B5114D4FF480742146284600F04CF8E9
:10243000002816D02146284600F020F80B480078E6
:1024400000280ED00A48006846280ADB09480078B0
:10245000012801D0032804D10749086810B10020E1
:10246000086070BD0120FBE700F00640040000207A
:10247000BC0000205E00002038043442C943C1671C
:10248000BFF34F8F7047002904D0016941F001016B
:1024900001617047016921F001010161704700008D
:1024A0000749884203D10121801508F033BB054953
:1024B000884203D10121401508F02CBB7047000071
:1024C00000E0064000F00640C26F0A40406F08403E
:1024D000002A02D008B10120704700207047002A6E
:1024E00003D0426F0A4342677047426F8A43426794
:1024F00070478A88C0F88820CA88C0F8842002689B
:1025000022F440320260026822F0807202600268A7
:102510000B681A430260098981677047FEE77047BC
:102520007047000070B50D4C002525600C4E01224F
:1025300080213046FFF706FF002280213046FFF75A
:1025400015FF201D056002200AF0B2FB012020606B
:1025500002200AF0ADFB256070BD0000180438426F
:1025600000C0014010B501218804FEF75FFA0D4C50
:10257000012240212046FFF7E5FE002240212046AF
:10258000FFF7FEFE40210848FFF71DFF00228021D3
:102590002046FFF7F5FE054901200860091D086087
:1025A00010BD000000C0014000B0014018043842D6
:1025B00070B50D4C002626600C4D01228021284666
:1025C000FFF7C0FE002280212846FFF7CFFE01253D
:1025D000201D056002200AF06BFB256002200AF036
:1025E00067FB266070BD00001804384200C001403F
:1025F0002DE9F04782460024184D0022802128460C
:10260000FFF7A0FE012280212846FFF7AFFE00253C
:10261000134EDFF8509000274FF00108376002207A
:102620000AF046FBC6F800806006040ED9F89C0349
:1026300008B1641CE4B201200AF03AFB6D1CEDB253
:10264000082DEBD3BAF1000F04D0FFF76BFF204643
:10265000BDE8F087FFF7ACFFF9E7000000C00140DC
:1026600018043842000038422DE9F0470546154C61
:10267000012280212046FFF765FE002280212046AE
:10268000FFF774FE104E4FF00008C6F800800024DB
:10269000012706F10409E809C9F800006806050EDB
:1026A00002200AF005FB376002200AF001FBC6F8A1
:1026B000008002200AF0FCFA641CE4B2082CEAD381
:1026C000BDE8F08700C001401804384270B50D4CD9
:1026D000012280212046FFF735FE0022802120467E
:1026E000FFF744FE084C01202060251F28600420CD
:1026F0000AF0DEFA0026266004200AF0D9FA2E60DD
:1027000070BD000000C001401C04384270B50D4C83
:10271000012280212046FFF715FE0022802120465D
:10272000FFF724FE084D002028602C1D20600420A7
:102730000AF0BEFA012028602060BDE87040042045
:102740000AF0B6BA00C001401804384270B500243F
:10275000134D002280212846FFF7F4FD012280213D
:102760002846FFF703FE0F480126066001200AF005
:102770009FFA0C4D2D1F2E6001200AF099FA0A488D
:1027800007E0641CE4B2FA2C03D9FFF7BFFF012075
:1027900070BDD0F89C130029F3D10020286070BDD3
:1027A00000C001401C04384200003842810701D0BB
:1027B000002070476421B0FBF1F201FB120109B166
:1027C000012070474FF4C871B0FBF1F201FB120019
:1027D00008B10020704701207047000070B501214A
:1027E0000805FEF723F90A4D4FF4C0640022214684
:1027F0002846FFF7A7FD022221462846FFF7CAFD1B
:1028000021462846BDE870400122FFF7AFBD000019
:1028100000E0014010B50F4CD4F8A803002807D001
:10282000D4F8A40320B1D4F8A80301280ED00FE0F7
:102830000A200AF029FAD4F8A80318B1D4F8A4039E
:1028400010B105E0012010BD022010BDD4F8A40392
:10285000002010BD00003C422DE9F04132200AF07A
:1028600013FA0121002008F013F832200AF00CFAC4
:10287000002007F087FAFE4CA0804FF6FF7508B1E4
:10288000A84210D1D42007F0D9FF07F029FA07F0A9
:1028900027FA07F025FA05EA0020A08007F020FAC1
:1028A000A1880843A080A18845F21030814202D15E
:1028B000F04A01211160A080ED2007F0BFFFEE4C2F
:1028C0004FF4804841462046FFF77DFD65142946B8
:1028D0002046FFF735FDE94F01213846FFF77BFD24
:1028E000E61431462046FFF72BFD31462046FFF720
:1028F0006AFD29462046FFF766FD41462046FFF760
:1029000062FD29462046FFF71BFDFE213846FFF7F2
:1029100062FD31462046FFF713FD31462046FFF7A2
:1029200052FD29462046FFF74EFDEE2007F086FFB8
:1029300041462046FFF747FD29462046FFF700FDA8
:10294000DE213846FFF747FD31462046FFF7F8FC09
:1029500031462046FFF737FD29462046FFF733FD75
:1029600041462046FFF72FFD29462046FFF7E8FCA9
:1029700021213846FFF72FFD31462046FFF7E0FCC6
:1029800031462046FFF71FFD29462046FFF71BFD75
:10299000F12007F053FF41462046FFF714FD29467A
:1029A0002046FFF7CDFC01213846FFF714FD3146E4
:1029B0002046FFF7C5FC31462046FFF704FD2946B7
:1029C0002046FFF700FDDF2007F038FF4146204694
:1029D000FFF7F9FC29462046FFF7B2FC10213846E4
:1029E000FFF7F9FC31462046FFF7AAFC31462046A6
:1029F000FFF7E9FC29462046FFF7E5FCC42007F075
:102A00001DFF41462046FFF7DEFC29462046FFF722
:102A100097FC8F213846FFF7DEFC31462046FFF752
:102A20008FFC31462046FFF7CEFC29462046FFF7B3
:102A3000CAFCC62007F002FF41462046FFF7C3FC50
:102A400029462046FFF77CFC00213846FFF7C3FCEF
:102A500031462046FFF774FC31462046FFF7B3FCB1
:102A600029462046FFF7AFFC41462046FFF7ABFC66
:102A700029462046FFF764FCE2213846FFF7ABFC0D
:102A800031462046FFF75CFC31462046FFF79BFCB1
:102A900029462046FFF797FC41462046FFF793FC66
:102AA00029462046FFF74CFCE2213846FFF793FC0D
:102AB00031462046FFF744FC31462046FFF783FCB1
:102AC00029462046FFF77FFC41462046FFF77BFC66
:102AD00029462046FFF734FCE2213846FFF77BFC0D
:102AE00031462046FFF72CFC31462046FFF76BFCB1
:102AF00029462046FFF767FCBF2007F09FFE4146AE
:102B00002046FFF760FC29462046FFF719FCAA2162
:102B10003846FFF760FC31462046FFF711FC31468E
:102B20002046FFF750FC29462046FFF74CFCB0201A
:102B300007F084FE41462046FFF745FC2946204623
:102B4000FFF7FEFB0D213846FFF745FC31462046D6
:102B5000FFF7F6FB31462046FFF735FC29462046B5
:102B6000FFF731FC41462046FFF72DFC2946204661
:102B7000FFF7E6FB00213846FFF72DFC31462046E3
:102B8000FFF7DEFB31462046FFF71DFC29462046B5
:102B9000FFF719FC41462046FFF715FC2946204661
:102BA000FFF7CEFB0D213846FFF715FC31462046D6
:102BB000FFF7C6FB31462046FFF705FC29462046B5
:102BC000FFF701FC41462046FFF7FDFB2946204662
:102BD000FFF7B6FB00213846FFF7FDFB31462046E4
:102BE000FFF7AEFB31462046FFF7EDFB29462046B6
:102BF000FFF7E9FB41462046FFF7E5FB2946204663
:102C0000FFF79EFB11213846FFF7E5FB31462046D2
:102C1000FFF796FB31462046FFF7D5FB29462046B5
:102C2000FFF7D1FB41462046FFF7CDFB2946204662
:102C3000FFF786FB00213846FFF7CDFB31462046E3
:102C4000FFF77EFB31462046FFF7BDFB29462046B5
:102C5000FFF7B9FB41462046FFF7B5FB2946204662
:102C6000FFF76EFB19213846FFF7B5FB314607E049
:102C7000980300200404364200C0014000D0014007
:102C80002046FFF75DFB31462046FFF79CFB2946B7
:102C90002046FFF798FB41462046FFF794FB294664
:102CA0002046FFF74DFB00213846FFF794FB3146E5
:102CB0002046FFF745FB31462046FFF784FB2946B7
:102CC0002046FFF780FB41462046FFF77CFB294664
:102CD0002046FFF735FB21213846FFF77CFB3146C4
:102CE0002046FFF72DFB31462046FFF76CFB2946B7
:102CF0002046FFF768FB41462046FFF764FB294664
:102D00002046FFF71DFB00213846FFF764FB3146E4
:102D10002046FFF715FB31462046FFF754FB2946B6
:102D20002046FFF750FB41462046FFF74CFB294663
:102D30002046FFF705FB2D213846FFF74CFB3146B7
:102D40002046FFF7FDFA31462046FFF73CFB2946B7
:102D50002046FFF738FB41462046FFF734FB294663
:102D60002046FFF7EDFA00213846FFF734FB3146E5
:102D70002046FFF7E5FA31462046FFF724FB2946B7
:102D80002046FFF720FB41462046FFF71CFB294663
:102D90002046FFF7D5FA3D213846FFF71CFB3146A8
:102DA0002046FFF7CDFA31462046FFF70CFB2946B7
:102DB0002046FFF708FB41462046FFF704FB294663
:102DC0002046FFF7BDFA00213846FFF704FB3146E5
:102DD0002046FFF7B5FA31462046FFF7F4FA2946B8
:102DE0002046FFF7F0FA41462046FFF7ECFA294665
:102DF0002046FFF7A5FA5D213846FFF7ECFA314689
:102E00002046FFF79DFA31462046FFF7DCFA2946B7
:102E10002046FFF7D8FA41462046FFF7D4FA294664
:102E20002046FFF78DFA00213846FFF7D4FA3146E5
:102E30002046FFF785FA31462046FFF7C4FA2946B7
:102E40002046FFF7C0FA41462046FFF7BCFA294664
:102E50002046FFF775FA5D213846FFF7BCFA314688
:102E60002046FFF76DFA31462046FFF7ACFA2946B7
:102E70002046FFF7A8FA41462046FFF7A4FA294664
:102E80002046FFF75DFA00213846FFF7A4FA3146E5
:102E90002046FFF755FA31462046FFF794FA2946B7
:102EA0002046FFF790FAB12007F0C8FC41462046C3
:102EB000FFF789FA29462046FFF742FA8021384673
:102EC000FFF789FA31462046FFF73AFA31462046A5
:102ED000FFF779FA29462046FFF775FA4146204662
:102EE000FFF771FA29462046FFF72AFA00213846F3
:102EF000FFF771FA31462046FFF722FA31462046A5
:102F0000FFF761FA29462046FFF75DFA4146204661
:102F1000FFF759FA29462046FFF712FA8B21384667
:102F2000FFF759FA31462046FFF70AFA31462046A4
:102F3000FFF749FA29462046FFF745FA4146204661
:102F4000FFF741FA29462046FFF7FAF900213846F3
:102F5000FFF741FA31462046FFF7F2F931462046A5
:102F6000FFF731FA29462046FFF72DFA4146204661
:102F7000FFF729FA29462046FFF7E2F9962138465D
:102F8000FFF729FA31462046FFF7DAF931462046A5
:102F9000FFF719FA29462046FFF715FA4146204661
:102FA000FFF711FA29462046FFF7CAF900213846F3
:102FB000FFF711FA31462046FFF7C2F931462046A5
:102FC000FFF701FA29462046FFF7FDF9B22007F086
:102FD00035FC41462046FFF7F6F929462046FFF723
:102FE000AFF900213846FFF7F6F931462046FFF7E2
:102FF000A7F931462046FFF7E6F929462046FFF7B4
:10300000E2F941462046FFF7DEF929462046FFF760
:1030100097F900213846FFF7DEF931462046FFF7E1
:103020008FF931462046FFF7CEF929462046FFF7B3
:10303000CAF941462046FFF7C6F929462046FFF760
:103040007FF902213846FFF7C6F931462046FFF7DF
:1030500077F931462046FFF7B6F929462046FFF7B3
:10306000B2F941462046FFF7AEF929462046FFF760
:1030700067F900213846FFF7AEF931462046FFF7E1
:103080005FF931462046FFF79EF929462046FFF7B3
:103090009AF941462046FFF796F929462046FFF760
:1030A0004FF903213846FFF796F931462046FFF7DE
:1030B00047F931462046FFF786F929462046FFF7B3
:1030C00082F941462046FFF77EF929462046FFF760
:1030D00037F900213846FFF77EF931462046FFF7E1
:1030E0002FF931462046FFF76EF929462046FFF7B3
:1030F0006AF9B32007F0A2FB41462046FFF763F9C7
:1031000029462046FFF71CF900213846FFF763F9EE
:1031100031462046FFF714F931462046FFF753F9B0
:1031200029462046FFF74FF941462046FFF74BF965
:1031300029462046FFF704F900213846FFF74BF9EE
:1031400031462046FFF7FCF831462046FFF73BF9B1
:1031500029462046FFF737F941462046FFF733F965
:1031600029462046FFF7ECF800213846FFF733F9EF
:1031700031462046FFF7E4F831462046FFF723F9B1
:1031800029462046FFF71FF941462046FFF71BF965
:1031900029462046FFF7D4F800213846FFF71BF9EF
:1031A00031462046FFF7CCF831462046FFF70BF9B1
:1031B00029462046FFF707F941462046FFF703F965
:1031C00029462046FFF7BCF800213846FFF703F9EF
:1031D00031462046FFF7B4F831462046FFF7F3F8B2
:1031E00029462046FFF7EFF841462046FFF7EBF867
:1031F00029462046FFF7A4F800213846FFF7EBF8F0
:1032000031462046FFF79CF831462046FFF7DBF8B1
:1032100029462046FFF7D7F841462046FFF7D3F866
:1032200029462046FFF78CF800213846FFF7D3F8EF
:1032300031462046FFF784F831462046FFF7C3F8B1
:1032400029462046FFF7BFF841462046FFF7BBF866
:1032500029462046FFF774F800213846FFF7BBF8EF
:1032600031462046FFF76CF831462046FFF7ABF8B1
:1032700029462046FFF7A7F841462046FFF7A3F866
:1032800029462046FFF75CF800213846FFF7A3F8EF
:1032900031462046FFF754F831462046FFF793F8B1
:1032A00029462046FFF78FF841462046FFF78BF866
:1032B00029462046FFF744F800213846FFF78BF8EF
:1032C00031462046FFF73CF831462046FFF77BF8B1
:1032D00029462046FFF777F841462046FFF773F866
:1032E00029462046FFF72CF800213846FFF773F8EF
:1032F00031462046FFF724F831462046FFF763F8B1
:1033000029462046FFF75FF841462046FFF75BF865
:1033100029462046FFF714F800213846FFF75BF8EE
:1033200031462046FFF70CF831462046FFF74BF8B0
:1033300029462046FFF747F841462046FFF743F865
:1033400029462046FEF7FCFF00213846FFF743F8E8
:1033500031462046FEF7F4FF31462046FFF733F8AA
:1033600029462046FFF72FF841462046FFF72BF865
:1033700029462046FEF7E4FF00213846FFF72BF8E8
:1033800031462046FEF7DCFF31462046FFF71BF8AA
:1033900029462046FFF717F841462046FFF713F865
:1033A00029462046FEF7CCFF00213846FFF713F8E8
:1033B00031462046FEF7C4FF31462046FFF703F8AA
:1033C00029462046FEF7FFFF41462046FEF7FBFF59
:1033D00029462046FEF7B4FF00213846FEF7FBFFE2
:1033E00031462046FEF7ACFF31462046FEF7EBFFA4
:1033F00029462046FEF7E7FF41462046FEF7E3FF59
:1034000029462046FEF79CFF00213846FEF7E3FFE1
:1034100031462046FEF794FF31462046FEF7D3FFA3
:1034200029462046FEF7CFFF41462046FEF7CBFF58
:1034300029462046FEF784FF00213846FEF7CBFFE1
:1034400031462046FEF77CFF31462046FEF7BBFFA3
:1034500029462046FEF7B7FF41462046FEF7B3FF58
:1034600029462046FEF76CFF00213846FEF7B3FFE1
:1034700031462046FEF764FF31462046FEF7A3FFA3
:1034800029462046FEF79FFF41462046FEF79BFF58
:1034900029462046FEF754FF00213846FEF79BFFE1
:1034A00031462046FEF74CFF31462046FEF78BFFA3
:1034B00029462046FEF787FF41462046FEF783FF58
:1034C00029462046FEF73CFF00213846FEF783FFE1
:1034D00031462046FEF734FF31462046FEF773FFA3
:1034E00029462046FEF76FFF41462046FEF76BFF58
:1034F00029462046FEF724FF00213846FEF76BFFE1
:1035000031462046FEF71CFF31462046FEF75BFFA2
:1035100029462046FEF757FF41462046FEF753FF57
:1035200029462046FEF70CFF00213846FEF753FFE0
:1035300031462046FEF704FF31462046FEF743FFA2
:1035400029462046FEF73FFF41462046FEF73BFF57
:1035500029462046FEF7F4FE00213846FEF73BFFE1
:1035600031462046FEF7ECFE31462046FEF72BFFA3
:1035700029462046FEF727FFB42007F05FF94146B1
:103580002046FEF720FF29462046FEF7D9FE8B2174
:103590003846FEF720FF31462046FEF7D1FE314681
:1035A0002046FEF710FF29462046FEF70CFF414655
:1035B0002046FEF708FF29462046FEF7C1FE0021FF
:1035C0003846FEF708FF31462046FEF7B9FE314681
:1035D0002046FEF7F8FE29462046FEF7F4FE414657
:1035E0002046FEF7F0FE29462046FEF7A9FE96216A
:1035F0003846FEF7F0FE31462046FEF7A1FE314682
:103600002046FEF7E0FE29462046FEF7DCFE414656
:103610002046FEF7D8FE29462046FEF791FE0021FF
:103620003846FEF7D8FE31462046FEF789FE314681
:103630002046FEF7C8FE29462046FEF7C4FE414656
:103640002046FEF7C0FE29462046FEF779FEA1215E
:103650003846FEF7C0FE31462046FEF771FE314681
:103660002046FEF7B0FE29462046FEF7ACFE414656
:103670002046FEF7A8FE29462046FEF761FE0021FF
:103680003846FEF7A8FE31462046FEF759FE314681
:103690002046FEF798FE29462046FEF794FEB52008
:1036A00007F0CCF841462046FEF78DFE294620461D
:1036B000FEF746FE02213846FEF78DFE31462046D3
:1036C000FEF73EFE31462046FEF77DFE29462046A7
:1036D000FEF779FE41462046FEF775FE2946204654
:1036E000FEF72EFE00213846FEF775FE31462046D5
:1036F000FEF726FE31462046FEF765FE29462046A7
:10370000FEF761FE41462046FEF75DFE2946204653
:10371000FEF716FE03213846FEF75DFE31462046D1
:10372000FEF70EFE31462046FEF74DFE29462046A6
:10373000FEF749FE41462046FEF745FE2946204653
:10374000FEF7FEFD00213846FEF745FE31462046D5
:10375000FEF7F6FD31462046FEF735FE29462046A7
:10376000FEF731FE41462046FEF72DFE2946204653
:10377000FEF7E6FD04213846FEF72DFE31462046D1
:10378000FEF7DEFD31462046FEF71DFE29462046A7
:10379000FEF719FE41462046FEF715FE2946204653
:1037A000FEF7CEFD00213846FEF715FE31462046D5
:1037B000FEF7C6FD31462046FEF705FE29462046A7
:1037C000FEF701FEB62007F039F841462046FEF725
:1037D000FAFD29462046FEF7B3FD00213846FEF7E4
:1037E000FAFD31462046FEF7ABFD31462046FEF796
:1037F000EAFD29462046FEF7E6FD41462046FEF753
:10380000E2FD29462046FEF79BFD00213846FEF7E3
:10381000E2FD31462046FEF793FD31462046FEF795
:10382000D2FD29462046FEF7CEFDB72007F006F868
:1038300041462046FEF7C7FD29462046FEF780FD9B
:1038400000213846FEF7C7FD31462046FEF778FDD9
:1038500031462046FEF7B7FD29462046FEF7B3FD68
:1038600041462046FEF7AFFD29462046FEF768FD9B
:1038700000213846FEF7AFFD31462046FEF760FDD9
:1038800031462046FEF79FFD29462046FEF79BFD68
:1038900041462046FEF797FD29462046FEF750FD9B
:1038A0003F213846FEF797FD31462046FEF748FD9A
:1038B00031462046FEF787FD29462046FEF783FD68
:1038C00041462046FEF77FFD29462046FEF738FD9B
:1038D00000213846FEF77FFD31462046FEF730FDD9
:1038E00031462046FEF76FFD29462046FEF76BFD68
:1038F00041462046FEF767FD29462046FEF720FD9B
:103900005E213846FEF767FD31462046FEF718FD7A
:1039100031462046FEF757FD29462046FEF753FD67
:1039200041462046FEF74FFD29462046FEF708FD9A
:1039300000213846FEF74FFD31462046FEF700FDD8
:1039400031462046FEF73FFD29462046FEF73BFD67
:1039500041462046FEF737FD29462046FEF7F0FC9B
:1039600064213846FEF737FD31462046FEF7E8FC75
:1039700031462046FEF727FD29462046FEF723FD67
:1039800041462046FEF71FFD29462046FEF7D8FC9B
:1039900000213846FEF71FFD31462046FEF7D0FCD9
:1039A00031462046FEF70FFD29462046FEF70BFD67
:1039B00041462046FEF707FD29462046FEF7C0FC9B
:1039C0008C213846FEF707FD31462046FEF7B8FC4D
:1039D00031462046FEF7F7FC29462046FEF7F3FC69
:1039E00041462046FEF7EFFC29462046FEF7A8FC9C
:1039F00000213846FEF7EFFC31462046FEF7A0FCDA
:103A000031462046FEF7DFFC29462046FEF7DBFC68
:103A100041462046FEF7D7FC29462046FEF790FC9B
:103A2000AC213846FEF7D7FC31462046FEF788FC2D
:103A300031462046FEF7C7FC29462046FEF7C3FC68
:103A400041462046FEF7BFFC29462046FEF778FC9B
:103A500000213846FEF7BFFC31462046FEF770FCD9
:103A600031462046FEF7AFFC29462046FEF7ABFC68
:103A700041462046FEF7A7FC29462046FEF760FC9B
:103A8000DC213846FEF7A7FC31462046FEF758FCFD
:103A900031462046FEF797FC29462046FEF793FC68
:103AA00041462046FEF78FFC29462046FEF748FC9B
:103AB00000213846FEF78FFC31462046FEF740FCD9
:103AC00031462046FEF77FFC29462046FEF77BFC68
:103AD00041462046FEF777FC29462046FEF730FC9B
:103AE00070213846FEF777FC31462046FEF728FC69
:103AF00031462046FEF767FC29462046FEF763FC68
:103B000041462046FEF75FFC29462046FEF718FC9A
:103B100000213846FEF75FFC31462046FEF710FCD8
:103B200031462046FEF74FFC29462046FEF74BFC67
:103B300041462046FEF747FC29462046FEF700FC9A
:103B400090213846FEF747FC31462046FEF7F8FB49
:103B500031462046FEF737FC29462046FEF733FC67
:103B600041462046FEF72FFC29462046FEF7E8FB9B
:103B700000213846FEF72FFC31462046FEF7E0FBD9
:103B800031462046FEF71FFC29462046FEF71BFC67
:103B900041462046FEF717FC29462046FEF7D0FB9B
:103BA000EB213846FEF717FC31462046FEF7C8FBEE
:103BB00031462046FEF707FC29462046FEF703FC67
:103BC00041462046FEF7FFFB29462046FEF7B8FB9C
:103BD00000213846FEF7FFFB31462046FEF7B0FBDA
:103BE00031462046FEF7EFFB29462046FEF7EBFB69
:103BF00041462046FEF7E7FB29462046FEF7A0FB9C
:103C0000DC213846FEF7E7FB31462046FEF798FBFD
:103C100031462046FEF7D7FB29462046FEF7D3FB68
:103C200041462046FEF7CFFB29462046FEF788FB9B
:103C300000213846FEF7CFFB31462046FEF780FBD9
:103C400031462046FEF7BFFB29462046FEF7BBFB68
:103C5000B82006F0F3FD41462046FEF7B4FB2946A6
:103C60002046FEF76DFB00213846FEF7B4FB3146D7
:103C70002046FEF765FB31462046FEF7A4FB2946A9
:103C80002046FEF7A0FB41462046FEF79CFB294656
:103C90002046FEF755FB00213846FEF79CFB3146D7
:103CA0002046FEF74DFB31462046FEF78CFB2946A9
:103CB0002046FEF788FB41462046FEF784FB294656
:103CC0002046FEF73DFB00213846FEF784FB3146D7
:103CD0002046FEF735FB31462046FEF774FB2946A9
:103CE0002046FEF770FB41462046FEF76CFB294656
:103CF0002046FEF725FB00213846FEF76CFB3146D7
:103D00002046FEF71DFB31462046FEF75CFB2946A8
:103D10002046FEF758FB41462046FEF754FB294655
:103D20002046FEF70DFB00213846FEF754FB3146D6
:103D30002046FEF705FB31462046FEF744FB2946A8
:103D40002046FEF740FB41462046FEF73CFB294655
:103D50002046FEF7F5FA00213846FEF73CFB3146D7
:103D60002046FEF7EDFA31462046FEF72CFB2946A9
:103D70002046FEF728FB41462046FEF724FB294655
:103D80002046FEF7DDFA00213846FEF724FB3146D7
:103D90002046FEF7D5FA31462046FEF714FB2946A9
:103DA0002046FEF710FB41462046FEF70CFB294655
:103DB0002046FEF7C5FA00213846FEF70CFB3146D7
:103DC0002046FEF7BDFA31462046FEF7FCFA2946AA
:103DD0002046FEF7F8FABA2006F030FD41462046AC
:103DE000FEF7F1FA29462046FEF7AAFA24213846C2
:103DF000FEF7F1FA31462046FEF7A2FA3146204698
:103E0000FEF7E1FA29462046FEF7DDFA4146204654
:103E1000FEF7D9FA29462046FEF792FA00213846E5
:103E2000FEF7D9FA31462046FEF78AFA3146204697
:103E3000FEF7C9FA29462046FEF7C5FA4146204654
:103E4000FEF7C1FA29462046FEF77AFA00213846E5
:103E5000FEF7C1FA31462046FEF772FA3146204697
:103E6000FEF7B1FA29462046FEF7ADFA4146204654
:103E7000FEF7A9FA29462046FEF762FA00213846E5
:103E8000FEF7A9FA31462046FEF75AFA3146204697
:103E9000FEF799FA29462046FEF795FAC12006F06A
:103EA000CDFC41462046FEF78EFA29462046FEF715
:103EB00047FA20213846FEF78EFA31462046FEF7B3
:103EC0003FFA31462046FEF77EFA29462046FEF7A5
:103ED0007AFA41462046FEF776FA29462046FEF752
:103EE0002FFA00213846FEF776FA31462046FEF7D3
:103EF00027FA31462046FEF766FA29462046FEF7A5
:103F000062FA41462046FEF75EFA29462046FEF751
:103F100017FA54213846FEF75EFA31462046FEF77E
:103F20000FFA31462046FEF74EFA29462046FEF7A4
:103F30004AFA41462046FEF746FA29462046FEF751
:103F4000FFF900213846FEF746FA31462046FEF7D3
:103F5000F7F931462046FEF736FA29462046FEF7A5
:103F600032FA41462046FEF72EFA29462046FEF751
:103F7000E7F9FF213846FEF72EFA31462046FEF7D4
:103F8000DFF931462046FEF71EFA29462046FEF7A5
:103F90001AFA41462046FEF716FA29462046FEF751
:103FA000CFF900213846FEF716FA31462046FEF7D3
:103FB000C7F931462046FEF706FA29462046FEF7A5
:103FC00002FAC22006F03AFC41462046FEF7FBF911
:103FD00029462046FEF7B4F90A213846FEF7FBF9D8
:103FE00031462046FEF7ACF931462046FEF7EBF9A4
:103FF00029462046FEF7E7F941462046FEF7E3F959
:1040000029462046FEF79CF900213846FEF7E3F9E1
:1040100031462046FEF794F931462046FEF7D3F9A3
:1040200029462046FEF7CFF941462046FEF7CBF958
:1040300029462046FEF784F904213846FEF7CBF9DD
:1040400031462046FEF77CF931462046FEF7BBF9A3
:1040500029462046FEF7B7F941462046FEF7B3F958
:1040600029462046FEF76CF900213846FEF7B3F9E1
:1040700031462046FEF764F931462046FEF7A3F9A3
:1040800029462046FEF79FF9C32006F0D7FB41469C
:104090002046FEF798F929462046FEF751F93C21C3
:1040A0003846FEF798F931462046FEF749F9314681
:1040B0002046FEF788F929462046FEF784F9414656
:1040C0002046FEF780F929462046FEF739F90021FF
:1040D0003846FEF780F931462046FEF731F9314681
:1040E0002046FEF770F929462046FEF76CF9414656
:1040F0002046FEF768F929462046FEF721F93A21C5
:104100003846FEF768F931462046FEF719F9314680
:104110002046FEF758F929462046FEF754F9414655
:104120002046FEF750F929462046FEF709F90021FE
:104130003846FEF750F931462046FEF701F9314680
:104140002046FEF740F929462046FEF73CF9414655
:104150002046FEF738F929462046FEF7F1F83921C6
:104160003846FEF738F931462046FEF7E9F8314681
:104170002046FEF728F929462046FEF724F9414655
:104180002046FEF720F929462046FEF7D9F80021FF
:104190003846FEF720F931462046FEF7D1F8314681
:1041A0002046FEF710F929462046FEF70CF9414655
:1041B0002046FEF708F929462046FEF7C1F83721C8
:1041C0003846FEF708F931462046FEF7B9F8314681
:1041D0002046FEF7F8F829462046FEF7F4F8414657
:1041E0002046FEF7F0F829462046FEF7A9F8002100
:1041F0003846FEF7F0F831462046FEF7A1F8314682
:104200002046FEF7E0F829462046FEF7DCF8414656
:104210002046FEF7D8F829462046FEF791F83C21C3
:104220003846FEF7D8F831462046FEF789F8314681
:104230002046FEF7C8F829462046FEF7C4F8414656
:104240002046FEF7C0F829462046FEF779F80021FF
:104250003846FEF7C0F831462046FEF771F8314681
:104260002046FEF7B0F829462046FEF7ACF8414656
:104270002046FEF7A8F829462046FEF761F83621C9
:104280003846FEF7A8F831462046FEF759F8314681
:104290002046FEF798F829462046FEF794F8414656
:1042A0002046FEF790F829462046FEF749F80021FF
:1042B0003846FEF790F831462046FEF741F8314681
:1042C0002046FEF780F829462046FEF77CF8414656
:1042D0002046FEF778F829462046FEF731F83221CD
:1042E0003846FEF778F831462046FEF729F8314681
:1042F0002046FEF768F829462046FEF764F8414656
:104300002046FEF760F829462046FEF719F80021FE
:104310003846FEF760F831462046FEF711F8314680
:104320002046FEF750F829462046FEF74CF8414655
:104330002046FEF748F829462046FEF701F82F21CF
:104340003846FEF748F831462046FDF7F9FF31467A
:104350002046FEF738F829462046FEF734F8414655
:104360002046FEF730F829462046FDF7E9FF0021F8
:104370003846FEF730F831462046FDF7E1FF31467A
:104380002046FEF720F829462046FEF71CF8414655
:104390002046FEF718F829462046FDF7D1FF2C21CC
:1043A0003846FEF718F831462046FDF7C9FF31467A
:1043B0002046FEF708F829462046FEF704F8414655
:1043C0002046FEF700F829462046FDF7B9FF0021F8
:1043D0003846FEF700F831462046FDF7B1FF31467A
:1043E0002046FDF7F0FF29462046FDF7ECFF414649
:1043F0002046FDF7E8FF29462046FDF7A1FF2921C9
:104400003846FDF7E8FF31462046FDF799FF314673
:104410002046FDF7D8FF29462046FDF7D4FF414648
:104420002046FDF7D0FF29462046FDF789FF0021F1
:104430003846FDF7D0FF31462046FDF781FF314673
:104440002046FDF7C0FF29462046FDF7BCFF414648
:104450002046FDF7B8FF29462046FDF771FF2621CB
:104460003846FDF7B8FF31462046FDF769FF314673
:104470002046FDF7A8FF29462046FDF7A4FF414648
:104480002046FDF7A0FF29462046FDF759FF0021F1
:104490003846FDF7A0FF31462046FDF751FF314673
:1044A0002046FDF790FF29462046FDF78CFF414648
:1044B0002046FDF788FF29462046FDF741FF2421CD
:1044C0003846FDF788FF31462046FDF739FF314673
:1044D0002046FDF778FF29462046FDF774FF414648
:1044E0002046FDF770FF29462046FDF729FF0021F1
:1044F0003846FDF770FF31462046FDF721FF314673
:104500002046FDF760FF29462046FDF75CFF414647
:104510002046FDF758FF29462046FDF711FF2421CC
:104520003846FDF758FF31462046FDF709FF314672
:104530002046FDF748FF29462046FDF744FF414647
:104540002046FDF740FF29462046FDF7F9FE0021F1
:104550003846FDF740FF31462046FDF7F1FE314673
:104560002046FDF730FF29462046FDF72CFF414647
:104570002046FDF728FF29462046FDF7E1FE2321CE
:104580003846FDF728FF31462046FDF7D9FE314673
:104590002046FDF718FF29462046FDF714FF414647
:1045A0002046FDF710FF29462046FDF7C9FE0021F1
:1045B0003846FDF710FF31462046FDF7C1FE314673
:1045C0002046FDF700FF29462046FDF7FCFE414648
:1045D0002046FDF7F8FE29462046FDF7B1FE3C21B6
:1045E0003846FDF7F8FE31462046FDF7A9FE314674
:1045F0002046FDF7E8FE29462046FDF7E4FE414649
:104600002046FDF7E0FE29462046FDF799FE0021F1
:104610003846FDF7E0FE31462046FDF791FE314673
:104620002046FDF7D0FE29462046FDF7CCFE414648
:104630002046FDF7C8FE29462046FDF781FE3621BB
:104640003846FDF7C8FE31462046FDF779FE314673
:104650002046FDF7B8FE29462046FDF7B4FE414648
:104660002046FDF7B0FE29462046FDF769FE0021F1
:104670003846FDF7B0FE31462046FDF761FE314673
:104680002046FDF7A0FE29462046FDF79CFE414648
:104690002046FDF798FE29462046FDF751FE3221BF
:1046A0003846FDF798FE31462046FDF749FE314673
:1046B0002046FDF788FE29462046FDF784FE414648
:1046C0002046FDF780FE29462046FDF739FE0021F1
:1046D0003846FDF780FE31462046FDF731FE314673
:1046E0002046FDF770FE29462046FDF76CFE414648
:1046F0002046FDF768FE29462046FDF721FE2F21C2
:104700003846FDF768FE31462046FDF719FE314672
:104710002046FDF758FE29462046FDF754FE414647
:104720002046FDF750FE29462046FDF709FE0021F0
:104730003846FDF750FE31462046FDF701FE314672
:104740002046FDF740FE29462046FDF73CFE414647
:104750002046FDF738FE29462046FDF7F1FD2C21C5
:104760003846FDF738FE31462046FDF7E9FD314673
:104770002046FDF728FE29462046FDF724FE414647
:104780002046FDF720FE29462046FDF7D9FD0021F1
:104790003846FDF720FE31462046FDF7D1FD314673
:1047A0002046FDF710FE29462046FDF70CFE414647
:1047B0002046FDF708FE29462046FDF7C1FD2921C8
:1047C0003846FDF708FE31462046FDF7B9FD314673
:1047D0002046FDF7F8FD29462046FDF7F4FD414649
:1047E0002046FDF7F0FD29462046FDF7A9FD0021F2
:1047F0003846FDF7F0FD31462046FDF7A1FD314674
:104800002046FDF7E0FD29462046FDF7DCFD414648
:104810002046FDF7D8FD29462046FDF791FD2621CB
:104820003846FDF7D8FD31462046FDF789FD314673
:104830002046FDF7C8FD29462046FDF7C4FD414648
:104840002046FDF7C0FD29462046FDF779FD0021F1
:104850003846FDF7C0FD31462046FDF771FD314673
:104860002046FDF7B0FD29462046FDF7ACFD414648
:104870002046FDF7A8FD29462046FDF761FD2421CD
:104880003846FDF7A8FD31462046FDF759FD314673
:104890002046FDF798FD29462046FDF794FD414648
:1048A0002046FDF790FD29462046FDF749FD0021F1
:1048B0003846FDF790FD31462046FDF741FD314673
:1048C0002046FDF780FD29462046FDF77CFD414648
:1048D0002046FDF778FD29462046FDF731FD2421CD
:1048E0003846FDF778FD31462046FDF729FD314673
:1048F0002046FDF768FD29462046FDF764FD414648
:104900002046FDF760FD29462046FDF719FD0021F0
:104910003846FDF760FD31462046FDF711FD314672
:104920002046FDF750FD29462046FDF74CFD414647
:104930002046FDF748FD29462046FDF701FD2321CD
:104940003846FDF748FD31462046FDF7F9FC314673
:104950002046FDF738FD29462046FDF734FD414647
:104960002046FDF730FD29462046FDF7E9FC0021F1
:104970003846FDF730FD31462046FDF7E1FC314673
:104980002046FDF720FD29462046FDF71CFDC420EA
:1049900005F054FF41462046FDF715FD2946204607
:1049A000FDF7CEFC62213846FDF715FD3146204665
:1049B000FDF7C6FC31462046FDF705FD2946204699
:1049C000FDF701FD41462046FDF7FDFC2946204646
:1049D000FDF7B6FC00213846FDF7FDFC31462046C8
:1049E000FDF7AEFC31462046FDF7EDFC294620469A
:1049F000FDF7E9FC41462046FDF7E5FC2946204647
:104A0000FDF79EFC05213846FDF7E5FC31462046C2
:104A1000FDF796FC31462046FDF7D5FC2946204699
:104A2000FDF7D1FC41462046FDF7CDFC2946204646
:104A3000FDF786FC00213846FDF7CDFC31462046C7
:104A4000FDF77EFC31462046FDF7BDFC2946204699
:104A5000FDF7B9FC41462046FDF7B5FC2946204646
:104A6000FDF76EFC84213846FDF7B5FC3146204643
:104A7000FDF766FC31462046FDF7A5FC2946204699
:104A8000FDF7A1FC41462046FDF79DFC2946204646
:104A9000FDF756FC00213846FDF79DFC31462046C7
:104AA000FDF74EFC31462046FDF78DFC2946204699
:104AB000FDF789FC41462046FDF785FC2946204646
:104AC000FDF73EFCF0213846FDF785FC31462046D7
:104AD000FDF736FC31462046FDF775FC2946204699
:104AE000FDF771FC41462046FDF76DFC2946204646
:104AF000FDF726FC00213846FDF76DFC31462046C7
:104B0000FDF71EFC31462046FDF75DFC2946204698
:104B1000FDF759FC41462046FDF755FC2946204645
:104B2000FDF70EFC18213846FDF755FC31462046AE
:104B3000FDF706FC31462046FDF745FC2946204698
:104B4000FDF741FC41462046FDF73DFC2946204645
:104B5000FDF7F6FB00213846FDF73DFC31462046C7
:104B6000FDF7EEFB31462046FDF72DFC2946204699
:104B7000FDF729FC41462046FDF725FC2946204645
:104B8000FDF7DEFBA4213846FDF725FC3146204623
:104B9000FDF7D6FB31462046FDF715FC2946204699
:104BA000FDF711FC41462046FDF70DFC2946204645
:104BB000FDF7C6FB00213846FDF70DFC31462046C7
:104BC000FDF7BEFB31462046FDF7FDFB294620469A
:104BD000FDF7F9FB41462046FDF7F5FB2946204647
:104BE000FDF7AEFB18213846FDF7F5FB31462046B0
:104BF000FDF7A6FB31462046FDF7E5FB294620469A
:104C0000FDF7E1FB41462046FDF7DDFB2946204646
:104C1000FDF796FB00213846FDF7DDFB31462046C7
:104C2000FDF78EFB31462046FDF7CDFB2946204699
:104C3000FDF7C9FB41462046FDF7C5FB2946204646
:104C4000FDF77EFB50213846FDF7C5FB3146204677
:104C5000FDF776FB31462046FDF7B5FB2946204699
:104C6000FDF7B1FB41462046FDF7ADFB2946204646
:104C7000FDF766FB00213846FDF7ADFB31462046C7
:104C8000FDF75EFB31462046FDF79DFB2946204699
:104C9000FDF799FB41462046FDF795FB2946204646
:104CA000FDF74EFB0C213846FDF795FB31462046BB
:104CB000FDF746FB31462046FDF785FB2946204699
:104CC000FDF781FB41462046FDF77DFB2946204646
:104CD000FDF736FB00213846FDF77DFB31462046C7
:104CE000FDF72EFB31462046FDF76DFB2946204699
:104CF000FDF769FB41462046FDF765FB2946204646
:104D0000FDF71EFB17213846FDF765FB31462046AF
:104D1000FDF716FB31462046FDF755FB2946204698
:104D2000FDF751FB41462046FDF74DFB2946204645
:104D3000FDF706FB00213846FDF74DFB31462046C6
:104D4000FDF7FEFA31462046FDF73DFB2946204699
:104D5000FDF739FB41462046FDF735FB2946204645
:104D6000FDF7EEFA95213846FDF735FB3146204632
:104D7000FDF7E6FA31462046FDF725FB2946204699
:104D8000FDF721FB41462046FDF71DFB2946204645
:104D9000FDF7D6FA00213846FDF71DFB31462046C7
:104DA000FDF7CEFA31462046FDF70DFB2946204699
:104DB000FDF709FB41462046FDF705FB2946204645
:104DC000FDF7BEFAF3213846FDF705FB31462046D4
:104DD000FDF7B6FA31462046FDF7F5FA294620469A
:104DE000FDF7F1FA41462046FDF7EDFA2946204647
:104DF000FDF7A6FA00213846FDF7EDFA31462046C8
:104E0000FDF79EFA31462046FDF7DDFA2946204699
:104E1000FDF7D9FA41462046FDF7D5FA2946204646
:104E2000FDF78EFAE6213846FDF7D5FA31462046E1
:104E3000FDF786FA31462046FDF7C5FA2946204699
:104E4000FDF7C1FA41462046FDF7BDFA2946204646
:104E5000FDF776FA00213846FDF7BDFA31462046C7
:104E6000FDF76EFA31462046FDF7ADFA2946204699
:104E7000FDF7A9FAC52005F0E1FC41462046FDF703
:104E8000A2FA29462046FDF75BFA32213846FDF7A3
:104E9000A2FA31462046FDF753FA31462046FDF787
:104EA00092FA29462046FDF78EFA41462046FDF744
:104EB0008AFA29462046FDF743FA00213846FDF7D5
:104EC0008AFA31462046FDF73BFA31462046FDF787
:104ED0007AFA29462046FDF776FA41462046FDF744
:104EE00072FA29462046FDF72BFA44213846FDF791
:104EF00072FA31462046FDF723FA31462046FDF787
:104F000062FA29462046FDF75EFA41462046FDF743
:104F10005AFA29462046FDF713FA00213846FDF7D4
:104F20005AFA31462046FDF70BFA31462046FDF786
:104F30004AFA29462046FDF746FA41462046FDF743
:104F400042FA29462046FDF7FBF965213846FDF770
:104F500042FA31462046FDF7F3F931462046FDF787
:104F600032FA29462046FDF72EFA41462046FDF743
:104F70002AFA29462046FDF7E3F900213846FDF7D5
:104F80002AFA31462046FDF7DBF931462046FDF787
:104F90001AFA29462046FDF716FA41462046FDF743
:104FA00012FA29462046FDF7CBF976213846FDF75F
:104FB00012FA31462046FDF7C3F931462046FDF787
:104FC00002FA29462046FDF7FEF941462046FDF744
:104FD000FAF929462046FDF7B3F900213846FDF7D6
:104FE000FAF931462046FDF7ABF931462046FDF788
:104FF000EAF929462046FDF7E6F941462046FDF745
:10500000E2F929462046FDF79BF988213846FDF74D
:10501000E2F931462046FDF793F931462046FDF787
:10502000D2F929462046FDF7CEF941462046FDF744
:10503000CAF929462046FDF783F900213846FDF7D5
:10504000CAF931462046FDF77BF931462046FDF787
:10505000BAF929462046FDF7B6F9C62005F0EEFB61
:1050600041462046FDF7AFF929462046FDF768F98D
:1050700020213846FDF7AFF931462046FDF760F9AB
:1050800031462046FDF79FF929462046FDF79BF95A
:1050900041462046FDF797F929462046FDF750F98D
:1050A00000213846FDF797F931462046FDF748F9CB
:1050B00031462046FDF787F929462046FDF783F95A
:1050C00041462046FDF77FF929462046FDF738F98D
:1050D00017213846FDF77FF931462046FDF730F9B4
:1050E00031462046FDF76FF929462046FDF76BF95A
:1050F00041462046FDF767F929462046FDF720F98D
:1051000000213846FDF767F931462046FDF718F9CA
:1051100031462046FDF757F929462046FDF753F959
:1051200041462046FDF74FF929462046FDF708F98C
:1051300001213846FDF74FF931462046FDF700F9C9
:1051400031462046FDF73FF929462046FDF73BF959
:1051500041462046FDF737F929462046FDF7F0F88D
:1051600000213846FDF737F931462046FDF7E8F8CB
:1051700031462046FDF727F929462046FDF723F959
:10518000C72005F05BFB41462046FDF71CF9294688
:105190002046FDF7D5F800213846FDF71CF93146C9
:1051A0002046FDF7CDF831462046FDF70CF929469B
:1051B0002046FDF708F941462046FDF704F9294647
:1051C0002046FDF7BDF800213846FDF704F93146C9
:1051D0002046FDF7B5F831462046FDF7F4F829469C
:1051E0002046FDF7F0F841462046FDF7ECF8294649
:1051F0002046FDF7A5F800213846FDF7ECF83146CA
:105200002046FDF79DF831462046FDF7DCF829469B
:105210002046FDF7D8F841462046FDF7D4F8294648
:105220002046FDF78DF800213846FDF7D4F83146C9
:105230002046FDF785F831462046FDF7C4F829469B
:105240002046FDF7C0F8C82005F0F8FA4146204690
:10525000FDF7B9F829462046FDF772F800213846D7
:10526000FDF7B9F831462046FDF76AF83146204689
:10527000FDF7A9F829462046FDF7A5F84146204646
:10528000FDF7A1F829462046FDF75AF800213846D7
:10529000FDF7A1F831462046FDF752F83146204689
:1052A000FDF791F829462046FDF78DF84146204646
:1052B000FDF789F829462046FDF742F800213846D7
:1052C000FDF789F831462046FDF73AF83146204689
:1052D000FDF779F829462046FDF775F84146204646
:1052E000FDF771F829462046FDF72AF800213846D7
:1052F000FDF771F831462046FDF722F83146204689
:10530000FDF761F829462046FDF75DF8C92005F054
:1053100095FA41462046FDF756F829462046FDF706
:105320000FF800213846FDF756F831462046FDF7C4
:1053300007F831462046FDF746F829462046FDF796
:1053400042F841462046FDF73EF829462046FCF744
:10535000F7FF00213846FDF73EF831462046FCF7BE
:10536000EFFF31462046FDF72EF829462046FDF78F
:105370002AF841462046FDF726F829462046FCF744
:10538000DFFF00213846FDF726F831462046FCF7BE
:10539000D7FF31462046FDF716F829462046FDF78F
:1053A00012F841462046FDF70EF829462046FCF744
:1053B000C7FF00213846FDF70EF831462046FCF7BE
:1053C000BFFF31462046FCF7FEFF29462046FCF78A
:1053D000FAFF41462046FCF7F6FF29462046FCF737
:1053E000AFFF00213846FCF7F6FF31462046FCF7B8
:1053F000A7FF31462046FCF7E6FF29462046FCF78A
:10540000E2FF41462046FCF7DEFF29462046FCF736
:1054100097FF00213846FCF7DEFF31462046FCF7B7
:105420008FFF31462046FCF7CEFF29462046FCF789
:10543000CAFF41462046FCF7C6FF29462046FCF736
:105440007FFF00213846FCF7C6FF31462046FCF7B7
:1054500077FF31462046FCF7B6FF29462046FCF789
:10546000B2FF41462046FCF7AEFF29462046FCF736
:1054700067FF00213846FCF7AEFF31462046FCF7B7
:105480005FFF31462046FCF79EFF29462046FCF789
:105490009AFF41462046FCF796FF29462046FCF736
:1054A0004FFF00213846FCF796FF31462046FCF7B7
:1054B00047FF31462046FCF786FF29462046FCF789
:1054C00082FF41462046FCF77EFF29462046FCF736
:1054D00037FF00213846FCF77EFF31462046FCF7B7
:1054E0002FFF31462046FCF76EFF29462046FCF789
:1054F0006AFF41462046FCF766FF29462046FCF736
:105500001FFF00213846FCF766FF31462046FCF7B6
:1055100017FF31462046FCF756FF29462046FCF788
:1055200052FF41462046FCF74EFF29462046FCF735
:1055300007FF00213846FCF74EFF31462046FCF7B6
:10554000FFFE31462046FCF73EFF29462046FCF789
:105550003AFF41462046FCF736FF29462046FCF735
:10556000EFFE00213846FCF736FF31462046FCF7B7
:10557000E7FE31462046FCF726FF29462046FCF789
:1055800022FF41462046FCF71EFF29462046FCF735
:10559000D7FE00213846FCF71EFF31462046FCF7B7
:1055A000CFFE31462046FCF70EFF29462046FCF789
:1055B0000AFF41462046FCF706FF29462046FCF735
:1055C000BFFE00213846FCF706FF31462046FCF7B7
:1055D000B7FE31462046FCF7F6FE29462046FCF78A
:1055E000F2FE41462046FCF7EEFE29462046FCF737
:1055F000A7FE00213846FCF7EEFE31462046FCF7B8
:105600009FFE31462046FCF7DEFE29462046FCF789
:10561000DAFEE02005F012F941462046FCF7D3FE01
:1056200029462046FCF78CFE16213846FCF7D3FEAF
:1056300031462046FCF784FE31462046FCF7C3FE87
:1056400029462046FCF7BFFE41462046FCF7BBFE3C
:1056500029462046FCF774FE00213846FCF7BBFEC5
:1056600031462046FCF76CFE31462046FCF7ABFE87
:1056700029462046FCF7A7FE41462046FCF7A3FE3C
:1056800029462046FCF75CFE1C213846FCF7A3FEA9
:1056900031462046FCF754FE31462046FCF793FE87
:1056A00029462046FCF78FFE41462046FCF78BFE3C
:1056B00029462046FCF744FE00213846FCF78BFEC5
:1056C00031462046FCF73CFE31462046FCF77BFE87
:1056D00029462046FCF777FE41462046FCF773FE3C
:1056E00029462046FCF72CFE21213846FCF773FEA4
:1056F00031462046FCF724FE31462046FCF763FE87
:1057000029462046FCF75FFE41462046FCF75BFE3B
:1057100029462046FCF714FE00213846FCF75BFEC4
:1057200031462046FCF70CFE31462046FCF74BFE86
:1057300029462046FCF747FE41462046FCF743FE3B
:1057400029462046FCF7FCFD36213846FCF743FE8F
:1057500031462046FCF7F4FD31462046FCF733FE87
:1057600029462046FCF72FFE41462046FCF72BFE3B
:1057700029462046FCF7E4FD00213846FCF72BFEC5
:1057800031462046FCF7DCFD31462046FCF71BFE87
:1057900029462046FCF717FE41462046FCF713FE3B
:1057A00029462046FCF7CCFD46213846FCF713FE7F
:1057B00031462046FCF7C4FD31462046FCF703FE87
:1057C00029462046FCF7FFFD41462046FCF7FBFD3D
:1057D00029462046FCF7B4FD00213846FCF7FBFDC6
:1057E00031462046FCF7ACFD31462046FCF7EBFD88
:1057F00029462046FCF7E7FD41462046FCF7E3FD3D
:1058000029462046FCF79CFD52213846FCF7E3FD73
:1058100031462046FCF794FD31462046FCF7D3FD87
:1058200029462046FCF7CFFD41462046FCF7CBFD3C
:1058300029462046FCF784FD00213846FCF7CBFDC5
:1058400031462046FCF77CFD31462046FCF7BBFD87
:1058500029462046FCF7B7FD41462046FCF7B3FD3C
:1058600029462046FCF76CFD64213846FCF7B3FD61
:1058700031462046FCF764FD31462046FCF7A3FD87
:1058800029462046FCF79FFD41462046FCF79BFD3C
:1058900029462046FCF754FD00213846FCF79BFDC5
:1058A00031462046FCF74CFD31462046FCF78BFD87
:1058B00029462046FCF787FD41462046FCF783FD3C
:1058C00029462046FCF73CFD7A213846FCF783FD4B
:1058D00031462046FCF734FD31462046FCF773FD87
:1058E00029462046FCF76FFD41462046FCF76BFD3C
:1058F00029462046FCF724FD00213846FCF76BFDC5
:1059000031462046FCF71CFD31462046FCF75BFD86
:1059100029462046FCF757FD41462046FCF753FD3B
:1059200029462046FCF70CFD8B213846FCF753FD39
:1059300031462046FCF704FD31462046FCF743FD86
:1059400029462046FCF73FFD41462046FCF73BFD3B
:1059500029462046FCF7F4FC00213846FCF73BFDC5
:1059600031462046FCF7ECFC31462046FCF72BFD87
:1059700029462046FCF727FD41462046FCF723FD3B
:1059800029462046FCF7DCFC99213846FCF723FD2C
:1059900031462046FCF7D4FC31462046FCF713FD87
:1059A00029462046FCF70FFD41462046FCF70BFD3B
:1059B00029462046FCF7C4FC00213846FCF70BFDC5
:1059C00031462046FCF7BCFC31462046FCF7FBFC88
:1059D00029462046FCF7F7FC41462046FCF7F3FC3D
:1059E00029462046FCF7ACFCA8213846FCF7F3FC1E
:1059F00031462046FCF7A4FC31462046FCF7E3FC88
:105A000029462046FCF7DFFC41462046FCF7DBFC3C
:105A100029462046FCF794FC00213846FCF7DBFCC5
:105A200031462046FCF78CFC31462046FCF7CBFC87
:105A300029462046FCF7C7FC41462046FCF7C3FC3C
:105A400029462046FCF77CFCB9213846FCF7C3FC0C
:105A500031462046FCF774FC31462046FCF7B3FC87
:105A600029462046FCF7AFFC41462046FCF7ABFC3C
:105A700029462046FCF764FC00213846FCF7ABFCC5
:105A800031462046FCF75CFC31462046FCF79BFC87
:105A900029462046FCF797FC41462046FCF793FC3C
:105AA00029462046FCF74CFCC4213846FCF793FC01
:105AB00031462046FCF744FC31462046FCF783FC87
:105AC00029462046FCF77FFC41462046FCF77BFC3C
:105AD00029462046FCF734FC00213846FCF77BFCC5
